:100000000C945D000C9485000C9485000C94850084
:100010000C9485000C9485000C9485000C9485004C
:100020000C9485000C9485000C9485000C9485003C
:100030000C9485000C9485000C9485000C9485002C
:100040000C94EC000C9485000C94EA020C942D03A3
:100050000C9485000C9485000C9485000C9485000C
:100060000C9485000C94850000000007000201003C
:100070000003040600000000000000000102040864
:100080001020408001020408102001020408102002
:10009000040404040404040402020202020203032E
:1000A0000303030300000000250028002B000000CC
:1000B0000000240027002A00E90311241FBECFEF0F
:1000C000D8E0DEBFCDBF11E0A0E0B1E0EAE5FFE09F
:1000D00002C005900D92A032B107D9F711E0A0E25D
:1000E000B1E001C01D92A73DB107E1F710E0CAEBF6
:1000F000D0E004C02297FE010E94A707C83BD107A9
:10010000C9F70E943F040C9467070C940000CF933A
:10011000DF93C0E0D1E061E088810E94E30161E00B
:1001200088810E941C0240E855E260E070E089E2AC
:1001300091E00E94680389E291E0DF91CF910C94F5
:10014000A102CF93DF93CDB7DEB727970FB6F89410
:10015000DEBF0FBECDBF6EE071E0CE0101960E9402
:10016000E20489E291E00E9452021816190684F412
:1001700089E291E00E947F02682FCE0101960E94E1
:10018000250565E070E080E090E00E945901E9CF2C
:1001900068E071E0CE0101960E943805882311F0D5
:1001A00061E009C06BE071E0CE0101960E94380564
:1001B000882329F060E0809100010E941C02CE019A
:1001C00001960E94740427960FB6F894DEBF0FBE06
:1001D000CDBFDF91CF9108951F920F920FB60F926E
:1001E00011242F933F938F939F93AF93BF9380914D
:1001F000210190912201A0912301B091240130911D
:10020000200123E0230F2D3720F40196A11DB11DFD
:1002100005C026E8230F0296A11DB11D20932001E1
:100220008093210190932201A0932301B093240194
:100230008091250190912601A0912701B09128017C
:100240000196A11DB11D8093250190932601A093D5
:100250002701B0932801BF91AF919F918F913F915A
:100260002F910F900FBE0F901F9018953FB7F894E5
:100270008091250190912601A0912701B09128013C
:1002800026B5A89B05C02F3F19F00196A11DB11DF1
:100290003FBF6627782F892F9A2F620F711D811D0E
:1002A000911D42E0660F771F881F991F4A95D1F76D
:1002B0000895CF92DF92EF92FF92CF93DF936B017D
:1002C0007C010E943601EB01C114D104E104F10468
:1002D00079F00E9436016C1B7D0B683E7340A0F3E1
:1002E00081E0C81AD108E108F108C851DC4FECCF11
:1002F000DF91CF91FF90EF90DF90CF9008957894A9
:1003000084B5826084BD84B5816084BD85B582601A
:1003100085BD85B5816085BDEEE6F0E080818160B8
:100320008083E1E8F0E010828081826080838081B8
:1003300081608083E0E8F0E0808181608083E1EB90
:10034000F0E0808184608083E0EBF0E08081816078
:100350008083EAE7F0E0808184608083808182602E
:100360008083808181608083808180688083109217
:10037000C1000895833081F028F4813099F08230F3
:10038000A1F008958630A9F08730B9F08430D1F417
:10039000809180008F7D03C0809180008F77809353
:1003A0008000089584B58F7702C084B58F7D84BDA9
:1003B00008958091B0008F7703C08091B0008F7D49
:1003C0008093B0000895CF93DF9390E0FC01E45850
:1003D000FF4F2491FC01E057FF4F8491882349F19E
:1003E00090E0880F991FFC01E255FF4FA591B49151
:1003F0008C559F4FFC01C591D4919FB7611108C0E6
:10040000F8948C91209582238C93888182230AC052
:10041000623051F4F8948C91322F309583238C9371
:100420008881822B888304C0F8948C91822B8C93D2
:100430009FBFDF91CF9108950F931F93CF93DF93C9
:100440001F92CDB7DEB7282F30E0F901E859FF4FF2
:100450008491F901E458FF4F1491F901E057FF4FDF
:1004600004910023C9F0882321F069830E94BA0116
:100470006981E02FF0E0EE0FFF1FEC55FF4FA591D3
:10048000B4919FB7F8948C91611103C010958123AA
:1004900001C0812B8C939FBF0F90DF91CF911F9153
:1004A0000F910895FC0124853585F901E05CFF4F2B
:1004B00080819181F901EE5BFF4F20813181821BA8
:1004C000930B8F7399270895FC0184859585FC0112
:1004D000E05CFF4F40815181FC01EE5BFF4F2081CA
:1004E00031814217530741F00190F081E02DE80F70
:1004F000F91F808190E008958FEF9FEF0895FC0130
:1005000084859585FC01E05CFF4F40815181FC01B1
:10051000EE5BFF4F208131814217530779F0A081B4
:10052000B181A80FB91F8C91208131812F5F3F4F7E
:100530002F7333273183208390E008958FEF9FEF4F
:100540000895FC0181A1882329F0A489B5898C91A3
:1005500086FFFBCF11A20895CF93DF93FC01268580
:100560003785D901A05CBF4F8D919C911197019661
:100570008F739927E901CE5BDF4F4881598184173A
:100580009507D9F30D90BC91A02DA20FB31F6C93CA
:10059000A685B785A05CBF4F11969C938E93A689C4
:1005A000B7892C9181E090E0078C02C0880F991FD9
:1005B0000A94E2F7282B2C9381E081A30488F58923
:1005C000E02D80818064808381E090E0DF91CF9195
:1005D000089508951F920F920FB60F9211242F9332
:1005E0003F934F938F939F93EF93FF938091C0001E
:1005F00082FD1CC04091C6008091CF019091D00136
:1006000001968F7399272091D1013091D2018217E1
:10061000930771F0E091CF01F091D001E157FE4FC7
:1006200040839093D0018093CF0102C08091C60097
:10063000FF91EF919F918F914F913F912F910F904B
:100640000FBE0F901F90189589E291E00E94520210
:10065000892B11F00C94E90208951F920F920FB6A6
:100660000F9211242F933F938F939F93EF93FF93B8
:1006700020918B0130918C0180918D0190918E01A0
:100680002817390731F48091C1008F7D8093C10014
:1006900014C0E0918D01F0918E01E55BFE4F208149
:1006A00080918D0190918E0101968F73992790937F
:1006B0008E0180938D012093C600FF91EF919F9151
:1006C0008F913F912F910F900FBE0F901F90189513
:1006D000CF92DF92EF92FF92CF93DF93EC016A010A
:1006E0007B01411581EE580761057105F9F0EC8930
:1006F000FD8981E090E008A002C0880F991F0A944C
:10070000E2F7808360E079E08DE390E0A701960155
:100710000E94830721503109410951095695479597
:1007200037952795211580E1380798F0EC89FD89E8
:10073000108260E874E88EE190E0A70196010E94C3
:10074000830721503109410951095695479537953D
:100750002795E889F9893083EA89FB89208319A2E2
:10076000EE89FF89408181E090E09C010C8C02C001
:10077000220F331F0A94E2F7422B4083EE89FF8950
:1007800040819C010D8C02C0220F331F0A94E2F7B6
:10079000422B4083EE89FF8940819C010E8C02C070
:1007A000220F331F0A94E2F7422B4083EE89FF8920
:1007B00020810F8C02C0880F991F0A94E2F7809560
:1007C00082238083DF91CF91FF90EF90DF90CF90D5
:1007D000089510922C0110922B0188EE93E0A0E076
:1007E000B0E080932D0190932E01A0932F01B09340
:1007F000300183E191E090932A01809329018FE8F1
:1008000091E090933601809335018BE491E09093D1
:1008100038018093370185EC90E090933A01809302
:10082000390184EC90E090933C0180933B0180EC93
:1008300090E090933E0180933D0181EC90E0909395
:10084000400180933F0182EC90E0909342018093BD
:10085000410186EC90E0909344018093430184E051
:100860008093450183E08093460187E080934701B0
:1008700085E08093480181E08093490108950E94BA
:100880007F010E948700C4E2D3E00E94A10020976C
:10089000E1F30E942403F9CFCF92DF92EF92FF920F
:1008A0000F931F93CF93DF936C017A01EB01E60E58
:1008B000F71E00E010E0CE15DF0561F06991D6016A
:1008C000ED91FC910190F081E02DC6010995080F92
:1008D000191FF1CFC801DF91CF911F910F91FF90A8
:1008E000EF90DF90CF900895FC01808191810C946E
:1008F000EF05CF93DF93EC0188819981009711F088
:100900000E94EF05198218821D821C821B821A82A6
:10091000DF91CF9108950F931F93CF93DF93EC0155
:100920008B016F5F7F4F888199810E947E060097BF
:1009300031F0998388831B830A8381E001C080E0C2
:10094000DF91CF911F910F910895CF93DF93EC0129
:1009500088819981892B29F08A819B818617970745
:1009600060F4CE010E948B04882341F08C819D812C
:10097000892B19F4E881F981108281E0DF91CF9110
:100980000895EF92FF920F931F93CF93DF93EC01A3
:100990007B018A01BA010E94A504811104C0CE0125
:1009A0000E94790407C01D830C83B7018881998157
:1009B0000E947C07CE01DF91CF911F910F91FF9094
:1009C000EF900895FC011182108213821282158229
:1009D000148216826115710559F0FB010190002007
:1009E000E9F7AF0141505109461B570B0C94C10464
:1009F0000895EF92FF920F931F93CF93DF93EC0133
:100A00007B010C811D816115710511F480E016C018
:100A10004115510591F0040F151FB8010E94A5045E
:100A20008823A1F3288139818C819D81B701820FB0
:100A3000931F0E947C071D830C8381E0DF91CF917F
:100A40001F910F91FF90EF900895CF93DF9300D007
:100A5000CDB7DEB769831A8241E050E0BE016F5F17
:100A60007F4F0E94F9040F900F90DF91CF9108956E
:100A7000FC0124813581232B31F421E061157105BE
:100A8000A1F0FB0108C0FC01808191816115710515
:100A900031F421E0FC018081882339F005C00E94F7
:100AA000730721E0892B09F020E0822F0895CF936E
:100AB000DF938230910510F482E090E0E091D5015F
:100AC000F091D60120E030E0A0E0B0E0309739F1BD
:100AD0004081518148175907B8F04817590771F4F8
:100AE00082819381109729F013969C938E9312978D
:100AF0002CC09093D6018093D50127C021153105D4
:100B000031F04217530718F0A901DB0101C0EF01D2
:100B10009A01BD01DF010280F381E02DD7CF2115BD
:100B20003105F9F0281B390B2430310580F48A8116
:100B30009B816115710521F0FB019383828304C0C1
:100B40009093D6018093D501FE01329644C0FE01F8
:100B5000E20FF31F81939193225031093983288347
:100B60003AC02091D3013091D401232B41F420913C
:100B70000401309105013093D4012093D3012091D9
:100B80000201309103012115310541F42DB73EB723
:100B90004091060150910701241B350BE091D301D0
:100BA000F091D401E217F307A0F42E1B3F0B281796
:100BB000390778F0AC014E5F5F4F2417350748F0D6
:100BC0004E0F5F1F5093D4014093D30181939193B3
:100BD00002C0E0E0F0E0CF01DF91CF910895CF9324
:100BE000DF93009709F487C0FC01329713821282C9
:100BF000C091D501D091D601209781F42081318117
:100C0000280F391F8091D3019091D4018217930747
:100C100079F5F093D401E093D3016DC0DE0120E0BB
:100C200030E0AE17BF0750F412964D915C911397C8
:100C30009D014115510509F1DA01F3CFB383A28378
:100C400040815181840F951F8A179B0771F48D9104
:100C50009C911197840F951F029691838083129621
:100C60008D919C911397938382832115310529F4EB
:100C7000F093D601E093D5013EC0D9011396FC93C1
:100C8000EE9312974D915D91A40FB51FEA17FB07E4
:100C900079F480819181840F951F0296D901119674
:100CA0009C938E938281938113969C938E9312973B
:100CB000E0E0F0E08A819B81009719F0FE01EC01F1
:100CC000F9CFCE01029628813981820F931F20919E
:100CD000D3013091D4012817390769F4309729F4EA
:100CE0001092D6011092D50102C013821282D093C5
:100CF000D401C093D301DF91CF9108956F927F9279
:100D00008F929F92AF92BF92CF92DF92EF92FF921B
:100D10000F931F93CF93DF93EC01CB01209781F4C6
:100D2000DF91CF911F910F91FF90EF90DF90CF90C7
:100D3000BF90AF909F908F907F906F900C945705CD
:100D4000FE01E60FF71F9E0122503109E217F3075B
:100D500008F4ACC0D9010D911C9111970617170723
:100D6000B8F00530110508F49FC0A801445051099E
:100D70004617570708F498C002501109061B170BB5
:100D8000019311936D937C93CF010E94EF058CC06A
:100D90005B01A01AB10A4E01800E911EA091D501EF
:100DA000B091D601612C712C60E070E0109709F4CD
:100DB00049C0A815B905C9F5ED90FC9011976701D8
:100DC00042E0C40ED11CCA14DB0478F147018A1832
:100DD0009B08640142E0C40ED11C1296BC9012978D
:100DE0001396AC91B5E0CB16D10440F0B282A38348
:100DF00091828082D9018D939C9309C00E5F1F4F11
:100E00000E0D1F1DF90111830083EB2DFA2F6115C3
:100E1000710531F0DB011396FC93EE93129744C0F9
:100E2000F093D601E093D5013FC06D917C9111976D
:100E30006616770608F43B01BD0112960D90BC9131
:100E4000A02DB4CF6091D3017091D40168157905BC
:100E5000E9F468167906D0F440910201509103013B
:100E60004115510541F44DB75EB76091060170918F
:100E70000701461B570BE417F507C0F4F093D401A4
:100E8000E093D301F901918380830EC00E9457053E
:100E90007C01009759F0A801BE010E946A07CE01AB
:100EA0000E94EF05C70104C0CE0102C080E090E0BF
:100EB000DF91CF911F910F91FF90EF90DF90CF9036
:100EC000BF90AF909F908F907F906F900895F8940F
:100ED0000C94AB07FB01DC0102C001900D92415064
:100EE0005040D8F70895FB01DC018D9101908019E5
:100EF0000110D9F3990B0895FB01DC0101900D92CB
:100F00000020E1F70895A1E21A2EAA1BBB1BFD01E8
:100F10000DC0AA1FBB1FEE1FFF1FA217B307E407D8
:100F2000F50720F0A21BB30BE40BF50B661F771F30
:100F3000881F991F1A9469F7609570958095909510
:100F40009B01AC01BD01CF010895EE0FFF1F05907D
:0A0F5000F491E02D0994F894FFCF0E
:100F5A000D000000D70180006F6E006F666600000A
:100F6A00000000AC024C0452027F026402A102009B
:00000001FF
